:100000000C9462000C948A000C948A000C948A0070
:100010000C948A000C948A000C948A000C948A0038
:100020000C948A000C948A000C948A000C948A0028
:100030000C948A000C948A000C948A000C948A0018
:100040000C9423020C948A000C94F1010C94CB01C3
:100050000C948A000C948A000C948A000C948A00F8
:100060000C948A000C948A000000000025002800EF
:100070002B0000000000240027002A0000000000E0
:1000800023002600290004040404040404040202DA
:100090000202020203030303030301020408102007
:1000A0004080010204081020010204081020000012
:1000B0000008000201000003040700000000000027
:1000C0000000F00311241FBECFEFD8E0DEBFCDBF8C
:1000D00011E0A0E0B1E0EEE8F8E002C005900D927A
:1000E000A233B107D9F721E0A2E3B1E001C01D922C
:1000F000AC3DB207E1F710E0C2E6D0E004C02197C2
:10010000FE010E943F04C136D107C9F70E946D026B
:100110000C9445040C940000AF92BF92CF92DF92F2
:10012000EF92FF920F931F93CF93DF936C017B01AC
:100130008B01040F151FEB015E01AE18BF08C0173D
:10014000D10759F06991D601ED91FC910190F081B0
:10015000E02DC6010995892B79F7C501DF91CF9173
:100160001F910F91FF90EF90DF90CF90BF90AF90D5
:100170000895FC01538D448D252F30E0842F90E0AD
:10018000821B930B541710F0CF9608950197089592
:10019000FC01918D828D981761F0A28DAE0FBF2F5B
:1001A000B11D5D968C91928D9F5F9F73928F90E0B1
:1001B00008958FEF9FEF0895FC01918D828D981720
:1001C00031F0828DE80FF11D858D90E008958FEF5D
:1001D0009FEF0895FC01918D228D892F90E0805C26
:1001E0009F4F821B91098F73992708958FE391E0A8
:1001F0000E94EA0021E0892B09F420E0822F089573
:1002000080E090E0892B29F00E94F60081110C9487
:1002100000000895FC01A48DA80FB92FB11DA35AA9
:10022000BF4F2C91848D90E001968F739927848F16
:10023000A689B7892C93A089B1898C918370806439
:100240008C93938D848D981306C00288F389E02DDA
:1002500080818F7D80830895EF92FF920F931F938B
:10026000CF93DF93EC0181E0888F9B8D8C8D981369
:100270001AC0E889F989808185FF15C09FB7F89475
:10028000EE89FF896083E889F989808183708064C1
:1002900080839FBF81E090E0DF91CF911F910F910C
:1002A000FF90EF900895F62E0B8D10E00F5F1F4F1B
:1002B0000F731127E02E8C8D8E110CC00FB607FC2A
:1002C000FACFE889F989808185FFF5CFCE010E94B8
:1002D0000A01F1CFEB8DEC0FFD2FF11DE35AFF4F1B
:1002E000F0829FB7F8940B8FEA89FB898081806246
:1002F000CFCFCF93DF93EC01888D8823B9F0AA8903
:10030000BB89E889F9898C9185FD03C0808186FDD0
:100310000DC00FB607FCF7CF8C9185FFF2CF80811F
:1003200085FFEDCFCE010E940A01E9CFDF91CF9189
:1003300008953FB7F8948091370190913801A091CA
:100340003901B0913A0126B5A89B05C02F3F19F09D
:100350000196A11DB11D3FBFBA2FA92F982F882745
:10036000BC01CD01620F711D811D911D42E0660F20
:10037000771F881F991F4A95D1F70895FC010190B6
:100380000020E9F73197AF01481B590BBC018FE3FF
:1003900091E00C948C001F920F920FB60F921124D3
:1003A0002F933F934F935F936F937F938F939F937D
:1003B000AF93BF93EF93FF938FE391E00E940A0105
:1003C000FF91EF91BF91AF919F918F917F916F912D
:1003D0005F914F913F912F910F900FBE0F901F9003
:1003E00018951F920F920FB60F9211242F938F938F
:1003F0009F93EF93FF93E0914F01F0915001808123
:10040000E0915501F091560182FD1BC090818091D1
:1004100058018F5F8F7320915901821741F0E0914D
:100420005801F0E0E15CFE4F958F80935801FF91F9
:10043000EF919F918F912F910F900FBE0F901F9072
:1004400018958081F4CF1F920F920FB60F9211244E
:100450002F933F938F939F93AF93BF9380913301DB
:1004600090913401A0913501B09136013091320163
:1004700023E0230F2D3758F50196A11DB11D2093C0
:1004800032018093330190933401A0933501B093EE
:1004900036018091370190913801A0913901B091D6
:1004A0003A010196A11DB11D809337019093380147
:1004B000A0933901B0933A01BF91AF919F918F9171
:1004C0003F912F910F900FBE0F901F90189526E827
:1004D000230F0296A11DB11DD2CFCF93DF93CDB7CD
:1004E000DEB7A1970FB6F894DEBF0FBECDBF7894EC
:1004F00084B5826084BD84B5816084BD85B5826029
:1005000085BD85B5816085BD80916E0081608093D9
:100510006E00109281008091810082608093810042
:100520008091810081608093810080918000816052
:10053000809380008091B10084608093B1008091AD
:10054000B00081608093B00080917A0084608093D5
:100550007A0080917A00826080937A0080917A009C
:10056000816080937A0080917A00806880937A001D
:100570001092C100E0914F01F091500182E0808320
:10058000E0914B01F0914C011082E0914D01F0910E
:100590004E018FEC808310925701E0915301F0914E
:1005A000540186E08083E0915101F09152018081F5
:1005B00080618083E0915101F091520180818860D7
:1005C0008083E0915101F0915201808180688083A5
:1005D000E0915101F091520180818F7D80834CE93F
:1005E000242E40E0342EF101249158E8E52E50E00D
:1005F000F52EF70184918823C9F090E0880F991FA8
:10060000FC01EE58FF4FA591B491FC01E859FF4F52
:10061000459154913FB7F8949C91822F80959823EF
:100620009C93FA019081892380833FBF9AE0892EB1
:10063000912CA12CB12C20E0C22E20E0D22EE0EB98
:10064000F0E08491F1019491F7012491222309F1C2
:10065000882359F0833009F496C008F089C08130AE
:1006600009F497C0823009F498C0E22FF0E0EE0F51
:10067000FF1FE458FF4FA591B4918C91982349F046
:1006800080913D0190913E01019690933E018093AF
:100690003D0180913B0190913C01843C994009F0DF
:1006A00043C082E191E00E94BE0140903D01509024
:1006B0003E01052C000C6608770877FE7BC06DE2D2
:1006C0008FE391E00E942C0122273327A9012419EE
:1006D00035094609570919A28E010F5D1F4FCA013E
:1006E000B901A50194010E941D04605DF8016293A7
:1006F0008F01211531054105510589F701151105B6
:1007000019F0C8010E94BE0188E291E00E94BE017A
:100710008EE291E00E94BE0110923C0110923B01DA
:1007200010923E0110923D010E9499012B013C0163
:100730000E9499016419750986099709683E7340FA
:1007400081059105A8F380913B0190913C010196B0
:1007500090933C0180933B01C114D10409F46FCF05
:100760000E94F600882309F46ACF0E94000067CF38
:100770008730B1F08830D1F0843009F076CF8091A5
:1007800080008F7D03C0809180008F7780938000F0
:100790006CCF84B58F7784BD68CF84B58F7DFBCF58
:1007A0008091B0008F778093B0005FCF8091B000D0
:1007B0008F7DF9CFA301920119A28E010F5D1F4F0A
:1007C000CA01B901A50194010E941D04605DF801F0
:1007D00062938F01211531054105510589F78ECFAF
:1007E000EFE3F1E01382128288EE93E0A0E0B0E044
:1007F00084839583A683B78384E091E0918380838B
:1008000085EC90E09587848784EC90E097878687D5
:1008100080EC90E0918B808B81EC90E0938B828BCD
:1008200082EC90E0958B848B86EC90E0978B868BA6
:10083000118E128E138E148E0895A1E21A2EAA1B09
:10084000BB1BFD010DC0AA1FBB1FEE1FFF1FA21780
:10085000B307E407F50720F0A21BB30BE40BF50B7D
:10086000661F771F881F991F1A9469F76095709506
:10087000809590959B01AC01BD01CF010895EE0FCD
:0E088000FF1F0590F491E02D0994F894FFCF2E
:10088E00000000002C018C00B9007901EA00C800BC
:10089E00DC004255544F4E204241534D412053559A
:1008AE0052455349203D200020286D7329000D0A22
:0208BE00000038
:00000001FF
